:020000040000fa
:080000000002040000000000f2
:020000040000fa
:0400080038060000b6
:020000040000fa
:04000c0038060000b2
:020000040000fa
:0400100038060000ae
:020000040000fa
:0400140038060000aa
:020000040000fa
:0400180038060000a6
:020000040000fa
:04001c0038060000a2
:020000040000fa
:04002000380600009e
:020000040000fa
:04002400380600009a
:020000040000fa
:040028003806000096
:020000040000fa
:04002c003806000092
:020000040000fa
:04003000380600008e
:020000040000fa
:04003400de030000e7
:020000040000fa
:040038003806000086
:020000040000fa
:04003c003806000082
:020000040000fa
:04004000380600007e
:020000040000fa
:040044000c040000a8
:020000040000fa
:040048003806000076
:020000040000fa
:04004c003806000072
:020000040000fa
:04005000380600006e
:020000040000fa
:04005400380600006a
:020000040000fa
:040058003806000066
:020000040000fa
:04005c00d4020000ca
:020000040000fa
:04006000380600005e
:020000040000fa
:04006400380600005a
:020000040000fa
:040068003806000056
:020000040000fa
:04006c003806000052
:020000040000fa
:04007000380600004e
:020000040000fa
:04007400380600004a
:020000040000fa
:040078003806000046
:020000040000fa
:04007c003806000042
:020000040000fa
:04008000380600003e
:020000040000fa
:04008400380600003a
:020000040000fa
:040088003806000036
:020000040000fa
:04008c003806000032
:020000040000fa
:04009000380600002e
:020000040000fa
:04009400380600002a
:020000040000fa
:040098003806000026
:020000040000fa
:04009c003806000022
:020000040000fa
:0400a000380600001e
:020000040000fa
:0400a400380600001a
:020000040000fa
:0400a8003806000016
:020000040000fa
:0400ac003806000012
:020000040000fa
:0400b000380600000e
:020000040000fa
:0400b400380600000a
:020000040000fa
:0400b8003806000006
:020000040000fa
:0400bc003806000002
:020000040000fa
:0400c00038060000fe
:020000040000fa
:0400c40038060000fa
:020000040000fa
:0400c80038060000f6
:020000040000fa
:0400cc0038060000f2
:020000040000fa
:0400d00038060000ee
:020000040000fa
:0400d40038060000ea
:020000040000fa
:0400d80038060000e6
:020000040000fa
:0400dc0038060000e2
:020000040000fa
:0400e00038060000de
:020000040000fa
:0400e40038060000da
:020000040000fa
:0400e80038060000d6
:020000040000fa
:0400ec0038060000d2
:020000040000fa
:0400f00038060000ce
:020000040000fa
:0400f40038060000ca
:020000040000fa
:0400f80038060000c6
:020000040000fa
:0400fc0038060000c2
:020000040000fa
:0401000038060000bd
:020000040000fa
:0401040038060000b9
:020000040000fa
:0401080038060000b5
:020000040000fa
:04010c0038060000b1
:020000040000fa
:0401100038060000ad
:020000040000fa
:0401140038060000a9
:020000040000fa
:0401180038060000a5
:020000040000fa
:04011c0038060000a1
:020000040000fa
:04012000380600009d
:020000040000fa
:040124003806000099
:020000040000fa
:040128003806000095
:020000040000fa
:04012c003806000091
:020000040000fa
:04013000380600008d
:020000040000fa
:040134003806000089
:020000040000fa
:040138003806000085
:020000040000fa
:04013c003806000081
:020000040000fa
:04014000380600007d
:020000040000fa
:040144003806000079
:020000040000fa
:040148003806000075
:020000040000fa
:0402080038060000b4
:020000040000fa
:04020c0038060000b0
:020000040000fa
:0402100038060000ac
:020000040000fa
:0402140038060000a8
:020000040000fa
:0402180038060000a4
:020000040000fa
:04021c0038060000a0
:020000040000fa
:04022000380600009c
:020000040000fa
:040224003806000098
:020000040000fa
:040228003806000094
:020000040000fa
:04022c003806000090
:020000040000fa
:04023000380600008c
:020000040000fa
:040234003806000088
:020000040000fa
:040238003806000084
:020000040000fa
:04023c003806000080
:020000040000fa
:04024000380600007c
:020000040000fa
:040244003806000078
:020000040000fa
:040248003806000074
:020000040000fa
:04024c003806000070
:020000040000fa
:04025000380600006c
:020000040000fa
:040254003806000068
:020000040000fa
:040258003806000064
:020000040000fa
:04025c003806000060
:020000040000fa
:04026000380600005c
:020000040000fa
:040264003806000058
:020000040000fa
:040268003806000054
:020000040000fa
:04026c003806000050
:020000040000fa
:04027000380600004c
:020000040000fa
:040274003806000048
:020000040000fa
:040278003806000044
:020000040000fa
:04027c003806000040
:020000040000fa
:04028000380600003c
:020000040000fa
:040284003806000038
:020000040000fa
:040288003806000034
:020000040000fa
:04028c003806000030
:020000040000fa
:04029000380600002c
:020000040000fa
:040294003806000028
:020000040000fa
:040298003806000024
:020000040000fa
:04029c003806000020
:020000040000fa
:0402a000380600001c
:020000040000fa
:0402a4003806000018
:020000040000fa
:0402a8003806000014
:020000040000fa
:0402ac003806000010
:020000040000fa
:0402b000380600000c
:020000040000fa
:0402b4003806000008
:020000040000fa
:0402b8003806000004
:020000040000fa
:0402bc003806000000
:020000040000fa
:0402c00038060000fc
:020000040000fa
:0402c40038060000f8
:020000040000fa
:0402c80038060000f4
:020000040000fa
:0402cc0038060000f0
:020000040000fa
:0402d00038060000ec
:020000040000fa
:0402d40038060000e8
:020000040000fa
:0402d80038060000e4
:020000040000fa
:0402dc0038060000e0
:020000040000fa
:0402e00038060000dc
:020000040000fa
:0402e40038060000d8
:020000040000fa
:0402e80038060000d4
:020000040000fa
:0402ec0038060000d0
:020000040000fa
:0402f00038060000cc
:020000040000fa
:0402f40038060000c8
:020000040000fa
:0402f80038060000c4
:020000040000fa
:0402fc0038060000c0
:020000040000fa
:0403000038060000bb
:020000040000fa
:0403040038060000b7
:020000040000fa
:0403080038060000b3
:020000040000fa
:04030c0038060000af
:020000040000fa
:0403100038060000ab
:020000040000fa
:0403140038060000a7
:020000040000fa
:0403180038060000a3
:020000040000fa
:04031c00380600009f
:020000040000fa
:04032000380600009b
:020000040000fa
:040324003806000097
:020000040000fa
:040328003806000093
:020000040000fa
:04032c00380600008f
:020000040000fa
:04033000380600008b
:020000040000fa
:040334003806000087
:020000040000fa
:040338003806000083
:020000040000fa
:04033c00380600007f
:020000040000fa
:04034000380600007b
:020000040000fa
:040344003806000077
:020000040000fa
:040348003806000073
:020000040000fa
:100400006f9020000e7f22000e0188000000000087
:10041000000020000000e000020032000001200087
:100420002002880014000700130207000000e0000b
:1004300003003a00201d22000100200002003700c6
:100440000000200001002000810f70000100320038
:1004500014000700000020000000e000020032004d
:1004600000000200000000000c1f0200000000005d
:100470000040da000000fe004440a9008006200091
:100480000000e0000300320000002000a00188000e
:100490004440a800000006008a1f78008b1f7800e7
:1004a0000000060091018800800478000000eb0045
:1004b0001a003700e284440032a0b4009905ba0063
:1004c000e284440032a0b4009906ba00e2844400f9
:1004d00032a0b4000006eb00476fde00fd07b2005b
:1004e000636ce10003003a00ebff07000000eb0043
:1004f0000a003700606ce10004003a00005deb0088
:100500008b05e900fdff3e00040037006168e10053
:10051000010032000086eb000b00070019c7ba008b
:100520001905ba000e04e00003003a000a00e000da
:10053000e0ff3a0000000600fe07b2009e018800be
:100540008a047800f5ff3700395dba008b05e900b1
:100550000c003200295dba008b05e900080032006a
:100560000c00e00003003a00e284440032a0b40032
:10057000f5ff370019ddba008b05e900faff3a00f4
:100580008904e800e184440032a0b40000000600c1
:10059000000000000000000000000000000000005b
:1005a00000000000000000003600f800809fbe0040
:1005b000829fbe00849fbe00869fbe003400f8006c
:1005c00000002000a00188000000fa0085a0a9001a
:1005d000b0428000c14280005043880061438800df
:1005e000001880008000eb0063020700d040880004
:1005f000e1408800001880008000eb005e020700e8
:1006000082eb210053b52300b00207000002be00b8
:1006100070418000814180000001be000400be00e6
:1006200096010700b0428800c1428800d042800095
:10063000e1428000704388008143880010188000e8
:100640008000eb004c020700f04088000141880068
:10065000101880008000eb004702070082eb2100a9
:1006600053b52300990207000002be0090418000ac
:10067000a14180000001be000400be007f01070010
:10068000d0428800e1428800f042800001438000af
:1006900090438800a1438800201880008000eb0070
:1006a0003502070010418800214188002018800091
:1006b0008000eb003002070082eb210053b52300dd
:1006c000820207000002be00b0418000c1418000ec
:1006d0000001be000400be0068010700f04288006f
:1006e000014388001043800021438000b04388000c
:1006f000c1438800301880008000eb001e02070014
:100700003041880041418800301880008000eb00b3
:100710001902070082eb210053b523006b0207008a
:100720000002be00d0418000e14180000001be0017
:100730000400be00510107001043880021438800d7
:100740003043800041438000d0438800e14388006b
:10075000401880008000eb0007020700504188002d
:1007600061418800401880008000eb000202070011
:1007700082eb210053b52300540207000002be00a3
:10078000f0418000014280000001be000400be0074
:100790003a01070030438800414388000080fa0096
:1007a0003400f9004f03be004f02be004f01be00ef
:1007b0004f00be003600f900004006003600f80089
:1007c000809fbe00829fbe00849fbe00869fbe00a9
:1007d0003400f80000002000a00188000000fa00aa
:1007e0008460a9000021ef0060d421000000010016
:1007f00060a22100000001000080fa003400f9002e
:100800004f03be004f02be004f01be004f00be00ae
:100810003600f900004006003600f800809fbe0058
:10082000829fbe00849fbe00869fbe00889fbe0040
:100830008a9fbe003400f80000002000a00188005c
:100840000000fa0084e0a9000621ef00000c8000ff
:100850008000eb00c80107000004be00b042800029
:10086000c14280000200200003f0230017020700ad
:100870000005be00104080002140800002002000e2
:1008800003f02300110207000002be00b042800006
:10089000c14280000001be000400be000b02070040
:1008a0000001be000a00be00f50007000005be0002
:1008b000b4428000c5428000504380006143800004
:1008c0000001be000400be00ec0007000002be00f4
:1008d00010408000214080000001be000400be00e6
:1008e000440107000200200003f02300f701070085
:1008f0000001be000a00be00e10007000001be00ca
:100900000800be00de00070080010700000078003c
:10091000000c8800000c8000300c80008000eb0090
:10092000950107000004be00d0428000e142800033
:100930000200200003f02300e40107000005be00d0
:1009400010408000214080000200200003f02300be
:10095000de0107000002be00d0428000e1428000bc
:100960000001be000400be00d80107000001be0067
:100970000a00be00c20007000005be00d44280008d
:10098000e542800070438000814380000001be008a
:100990000400be00b90007000002be001040800045
:1009a000214080000001be000400be0011010700cc
:1009b0000200200003f02300c40107000001be0074
:1009c0000a00be00ae0007000001be000800be0025
:1009d000ab0007004d01070000007800300c8800d4
:1009e000300c8000600c80008000eb00620107008a
:1009f0000004be00f042800001438000020020009d
:100a000003f02300b10107000005be001040800084
:100a1000214080000200200003f02300ab0107000a
:100a20000002be00f0428000014380000001be00d1
:100a30000400be00a50107000001be000a00be00c0
:100a40008f0007000005be00f442800005438000cf
:100a500090438000a14380000001be000400be005e
:100a6000860007000002be00104080002140800088
:100a70000001be000400be00de00070002002000ee
:100a800003f02300910107000001be000a00be0030
:100a90007b0007000001be000800be0078000700d0
:100aa0001a01070000007800600c8800600c8000cc
:100ab000900c80008000eb002f0107000004be00b6
:100ac00010438000214380000200200003f0230037
:100ad0007e0107000005be0010408000214080001c
:100ae0000200200003f02300780107000002be008e
:100af00010438000214380000001be000400be00be
:100b0000720107000001be000a00be005c00070081
:100b10000005be001443800025438000b0438000e0
:100b2000c14380000001be000400be005300070066
:100b30000002be0010408000214080000001be0085
:100b40000400be00ab0007000200200003f02300f9
:100b50005e0107000001be000a00be004800070059
:100b60000001be000800be0045000700e7000700c6
:100b700000007800900c8800900c8000c00c800071
:100b80008000eb00fc0007000004be003043800042
:100b9000414380000200200003f023004b010700c6
:100ba0000005be00104080002140800002002000af
:100bb00003f02300450107000002be00304380001f
:100bc000414380000001be000400be003f01070059
:100bd0000001be000a00be00290007000005be009b
:100be0003443800045438000d0438000e1438000cf
:100bf0000001be000400be00200007000002be008d
:100c000010408000214080000001be000400be00b2
:100c1000780007000200200003f023002b010700ea
:100c20000001be000a00be00150007000001be0062
:100c30000800be0012000700b400070000007800a2
:100c4000c00c8800c00c80000080fa003400f9005d
:100c50004f05be004f04be004f03be004f02be0052
:100c60004f01be004f00be003600f90000400600f4
:100c70000040da000000fe000000050003f0a200c2
:100c8000889fbe008a9fbe008c1f7800f700070077
:100c9000fe0033006450e1004f0032006420e100a8
:100ca0005200320003826c0007003b000905d000af
:100cb0000306d000820f54000c065d0002003900cc
:100cc0000200320089017800030678008582550011
:100cd00004003d000003fd008103fd008502ea00e1
:100ce0008b854200840f720002003b006000100000
:100cf000e08018006011b8000005eb007a28e100e0
:100d00000a00390006007800c75ddd00f707b20071
:100d1000878075002d003700828171000a017800fc
:100d2000610560008180d1000080d3008502e90068
:100d3000f9ff3b00060440008784480002003b00a6
:100d400060041400e0841c000988a300070032003e
:100d50008a81710082817100610164008904d1007f
:100d60000884d3008b05e800170037000978a3003a
:100d700013003a000b00e000130034008b05e9007b
:100d80000804440089844c000a4474000978a300d4
:100d90000d003a000b00e000070034008b05e9006d
:100da0000804440089844c0001003a000b00200034
:100db0000978a300f7ff32000001eb0002003700c2
:100dc000828171000a0178006d0007000cf0a70015
:100dd00001f0a000b60037006420e10002003a00f4
:100de000838f6c00b60033000801be000200be0015
:100df000af003700889fbe008a9fbe008c1f78001e
:100e00009a000700a100330003866c006450e100e3
:100e10002e0032006420e100330032006150e10016
:100e20002f0032006120e10031003200858555003d
:100e3000eb07b0000900200008042000050037007f
:100e40000804440089844c000a0031000603430072
:100e500087834b000001530081815b00f8ff330062
:100e60000203be000800a0000804440089844c006e
:100e7000f6ff3900c639dd0083017300010032003e
:100e8000130020008904d1000884d3000998a3002e
:100e9000050032000800a7000300a0008904d1006b
:100ea0000884d3008b05e8008904d1000884d300ae
:100eb0000001eb000281d2003100070001f0a10027
:100ec0000cf0a70001f0a000790037006420e100d9
:100ed0007b0032000801be000200be00f7ff3700b1
:100ee0006120e100760032006000b800f3ff3700b7
:100ef0000000200001f82700f0ff37001400200058
:100f0000a6003700f4ff2f00a40037000001be0048
:100f1000410007000470a70003f0a10003f8a3003c
:100f200013003a006509b1001000320009003500d5
:100f30006928e100020035000100280000000500da
:100f400000004000818048008502e900fcff3a0073
:100f500000000600f88f4200050035008100d10036
:100f60000080d3008502e800fcff3a000000060084
:100f70008000eb00000005006011b800a2003700ff
:100f800081002000618055000b003d000b00200017
:100f900061fe2f000100e1001d003400828171001c
:100fa000610164008904d1000884d3000000e800d6
:100fb000faff3a0071002000610064000300700035
:100fc000020060000900320061044400e0844c002b
:100fd0000988a500050032008b05e8006808e100db
:100fe00002003a008904d1000884d300f20f2000e7
:100ff0000258e10005003d00c75ddd00f907b200c1
:101000008980750008007800000006000bf82700b2
:101010008b00780000000500c70ade00f107b2006f
:10102000f50fb20008003200e1cf420002003200aa
:101030000170a00024000500810f70000100320043
:101040000408050044000500810f700002003a000a
:10105000140005008502e9000000400081c048003e
:10106000fcff3b000170a000240005000004be004e
:10107000e9ff07000003be000405be000200be0039
:10108000e5ff0700844f7500000006000200be0067
:101090006450e100050036006420e10002003600e3
:1010a0000968a30001003a000800be000160a0002a
:1010b0004f0678004f05be004f04be00000006003a
:1010c000f0ff2f00f1ff2700f9ff3700889fbe00d7
:1010d0008a9fbe008c1f7800e4ff0700ebff3300ff
:1010e00003866c006450e100240032006420e100bb
:1010f000270032006150e100220032006120e1004f
:10110000210032008b854200eb07b1000134b800aa
:10111000003ab8000804420089844a00013ab80045
:101120000030b8008880400009014a000400330004
:101130000000400081804800020149008b05e90061
:10114000c909dd0083017000010032001300200096
:10115000c814de004814dd004709de001200b200aa
:10116000c808de000884700085ff070001f0a100b8
:101170000cf0a70001f0a000cdff37006120e100d6
:10118000cfff32000801be000200be00f7ff3700ab
:101190006150e100fcff3a00c9ff3700889fbe00a4
:1011a0008a9fbe00841f7800b0ff07004f007800c0
:1011b00011003300f0ff2f00838f6c0006003b000e
:1011c000040565000a00a7000800370009f0a60022
:1011d0001000200008003700820f5400838f5c004d
:1011e000030039001000200001003e000000200034
:1011f00009f0a7000000ea004f05be004f04be0042
:101200000000e00000000600889fbe008a9fbe002c
:101210000082700004027100048271002600320016
:101220000004be000200be006011b8006b0920007f
:10123000950220000182cf000a0039000541b1006b
:101240000082cf00070039000541b1000982cf00bc
:10125000040039000541b1000882cf0001003900c7
:101260000541b10005425200120032000a003b0065
:1012700082817100610164008100d1000080d3008f
:101280008984d3000884d3008b05e8000442e80079
:10129000f7ff3a00070037000804440089844c0037
:1012a00000004800818048008b05e9000442e90005
:1012b000f9ff3a0032ff07004f05be004f04be00a1
:1012c0000000060080007800010178003104e00091
:1012d000fdff3a000000510000000600881f780062
:1012e000020478000801780062030700080040004b
:1012f0004f047800000006000000fa00881f780004
:1013000000047800ea8157003fb997008800780010
:10131000e0962000070007000000e0000200350012
:101320008040eb00017478004f0478000080fa00e0
:10133000000006006200fa00889fbe008a1f780045
:1013400000057800810478000204780083007800aa
:1013500080f92f000f0040003f0407009a979f007c
:10136000a9979f000000eb00b09f9f001885fb002d
:101370008a04fb000a05ea004f55de0050022000f7
:10138000808f54000d003200e10f55000b003a0031
:101390000a017800880078002f9097009f919700ad
:1013a00003000100a0979f000000e0008e003200c3
:1013b0003f9897000000e800b09f9f000a04440097
:1013c00050022000808f5400040032000900e00029
:1013d000e6ff3a003f989700840037000000eb00da
:1013e000909f9f00809f9f00f0979f00e0979f0035
:1013f000d0979f00c0979f0007003700e18f200023
:101400000100500000004000218f200061007800a2
:10141000df98970001007000d09f9f00880478003b
:1014200009047800384578008a00fb00e08f20002e
:10143000170307000000e000f0ff3a00a1c2b3006c
:10144000814f55000e003a00cf8897000180e900d7
:10145000c08f9f0010007800c09f9f000000e00038
:1014600005003d000000ea00c09f9f005f989700c4
:101470000020a000d09f9f000904e8000f00370063
:10148000c09f9f000000eb0005003700f2ff27001f
:10149000820f5000020032006a01b9000280400051
:1014a0000904780088047800b900fb000103b1004a
:1014b000e98f5000f5ff3600c09f9f00e0c2b300e7
:1014c000984f1000020032000080eb001900370036
:1014d000a0c2b300d84f100007003a00cf88970091
:1014e0000180e900c08f9f0010007800a09f9f003e
:1014f0000804e800100037000000eb00a09f9f00e8
:101500008800780005003700f3ff2700830f5000a4
:10151000020032006a02b9000400410001047800b0
:10152000880078003101fb000203b100e90f51008f
:10153000f5ff3600a09f9f00984478008900fb00cb
:10154000a08e2000d20207000000e000020032005e
:101550000804e800010037008044eb00c97f9f00c9
:1015600080c6b30080cf540004003a0098cf140026
:101570000a003a006640500006003700c0c6b300bb
:1015800080cf540005003a0098cf140003003a00c1
:1015900065404000c07f9f000804e8001801fb0080
:1015a000e3fb2f008f81410081f92f008f804000e5
:1015b000a0f92f000f004000100007000000e0001d
:1015c00009003a00e1fb2f008f804000a0f92f00b6
:1015d0000f004000e40207000000e00002003500b8
:1015e0000804e80061ff37000080eb004f05780039
:1015f0004f04be000080fa0000000600889fbe0075
:101600008a1f78000004780082447800030578007f
:1016100070c4b30080cf54000a003c0000c0e90051
:1016200080cf54000f003d0050c2b30080cf540063
:10163000350032007c40400080cf540035003a0035
:101640000800370010c6b30080cf540005003200f8
:1016500030003500b0c9b30000c04400e24f500074
:101660002c003e0028619000c0c4b300804f5100a0
:1016700006003a00110178006800510080087800e7
:101680005001be004000be00050037001101780087
:1016900064005100800878001000be007404070048
:1016a000009cbe000294be00b8009000780090003c
:1016b0000100e00002003d00d1c2b3000800370085
:1016c000881090000118a30002003200b1c2b300dc
:1016d000030037000108a3000400320001c2b30078
:1016e000017578000000e800700498007800900010
:1016f000000545006a0498008900fb000800780096
:10170000100007000b003700780090000975780082
:101710000600370078009000000545000904e0004d
:1017200001003a0059c2b300094d78000000e800fa
:10173000700498000000eb004f0578004f04be00d5
:10174000000006002f04b000889fbe008a9fbe00e4
:101750008c9fbe008e1f78000007780081f79f00e5
:101760003e04be002e05be005e0890000000e000b2
:1017700002003d0060002000500f98008e007800ad
:1017800020fb2f000f0040004d020700e20f500029
:101790000a003a0030002000100f9800b1c9b300d1
:1017a0000ff097008140400060892000e1cf500099
:1017b0000d003e00208920000b0037000000e000f3
:1017c0000f00340030002000100f9800b1c9b300a2
:1017d0000ff1970081404100e0892000e1cf5000e7
:1017e00001003e00a0892000ee009000b048780083
:1017f000b06878001040780090409800f3003700ff
:101800000000e00005003a0022fb2f000f0141001c
:10181000001978008001eb00e70037006022b80073
:101820006033b8000800be000a01be00580307007c
:101830000000e00001003d000bf0a20070592700fd
:101840009f9897000088b900026a280013002000c2
:10185000b3030700640650009c9f9f0013003b00e9
:1018600063061600c0ff2f00000666008c01ea0028
:10187000939f9f002d8a20000800be000a01be0031
:10188000070037000c08a300030032003d02be0031
:101890002d03be00440407000c86d100e8864600f4
:1018a0000c00e000f7ff3c00180037000c00e000df
:1018b00018003200c0ff2f00000666009c9f9f00aa
:1018c0002d8a20006000b8000200200003ff2300e2
:1018d000070037000c08a300030032003d02be00e1
:1018e0002d03be00300407000c86d100e8864600b8
:1018f0000c00e000f7ff3c000002be000203be0047
:101900000800be000a01be002b0307000004be0051
:101910000205be00de08900060c6b3000ff297001b
:10192000804f5200040032006000200062c4b30007
:10193000824f520002003a009f9a97006a8042004c
:1019400081004000f1b79f0001037800f30f5300be
:101950000200340037012000f7b79f0000c3b30036
:10196000c0779f0056fb2f000f0343000e00780046
:10197000a0b79f00060778003d0037000800be00b2
:101980000a01be00d90307000006be007fb1970020
:1019900068015100f2b79f004240a9000c003400da
:1019a000fe0307000002be000203be000800be00e6
:1019b0000a01be00720407006022b80046782d00bc
:1019c00077192400f80307000004be000205be00da
:1019d000e80047008e0020000802be000a03be0097
:1019e000b4b79f00c5b79f00d6b79f00e7b79f0069
:1019f0000c01be00010478000c003700a400200098
:101a000005002000c0fd2f000f00400084010700ea
:101a10006fa89700ffa897000fb197009fb197009c
:101a200005c3b300056441000001be00e00f510092
:101a3000e08f5900030034000e07e900e10f470072
:101a4000eeff3a00880078003fb49700cfb49700cb
:101a50005fb59700efb597000200370000c3b300f1
:101a6000806078000e07e900fcff3b0068874000bb
:101a70007fb397000600e000070034006022b80042
:101a80006033b8000800be000a01be00c5020700ae
:101a90000000e000b9ff3c000e0378002fb797006c
:101aa00051fb2f008f804000010353009f9b970044
:101ab00067804300909f9f00020037000603e90003
:101ac0000000e900010178008200780003c3b30040
:101ad000b1cf1100f9ff3200909f9f00de09900006
:101ae00061c6b3000ff29700814f5200030032002d
:101af00061c4b300814f520002003a000000e800c8
:101b00000a0037001000200051c6b3008ff2970082
:101b100081cf5200050032000540780050c4b20069
:101b20000080fb000000e9004f00de008301400060
:101b3000868f510001003400860178000300e00028
:101b40001d00350000c3b300868f510006003d0024
:101b500062c279006940400041c3b300814f520026
:101b600001003c00694050008300e9008100410011
:101b700001003700840178000302e90001037800c6
:101b8000a142780080cf5200faff320091c3b30027
:101b9000814f500001003a00054be8000400e000ce
:101ba00005003d000201e9008301e8001f9b97004a
:101bb0000603e800969f9f008ff397008700fb00c5
:101bc0001f9a97000e007800060007004f07780064
:101bd0004f06be004f05be004f04be002f04b100eb
:101be00000000600f0874700889fbe008a9fbe0065
:101bf0008c9fbe008e1f780000047800814478001e
:101c00000205be00040678000b00e00002003c0064
:101c10001b0020004a90200060c6b30080cf540013
:101c20000e00320060c4b30080cf54000b003200bd
:101c300070c6b30080cf54000300320070c4b300fc
:101c400080cf540081003a00e40f46007f00350049
:101c500058089000800f56007c003d000c06e800fc
:101c600060c6b30080cf54001000320060c4b300df
:101c700080cf54000d003200081090000038a300ff
:101c800004003a0058089000808f550001003d0084
:101c90005b0c9800580890000c005000500c980005
:101ca00002003b000000eb00500c98001808900068
:101cb000e80090000c00e00026003c0002c3b300e6
:101cc000827078000000e800100c9800d80890009e
:101cd0000100e00003003c00881090000138a300e0
:101ce00005003200e8009000e2c2b3008270780084
:101cf0000000e800100c9800580890008c00ea00e2
:101d0000810f500001003d000006ea008c00ea004f
:101d1000210c9800000646005c0c98008b0f5600c2
:101d2000010034000b0678003c0c9800e80090009d
:101d300018089000008040000c0178008a007800ac
:101d4000cc000700580890000c0650004c0c98007e
:101d5000900037008c8f550018003d000080400037
:101d60000b0178008a007800c20007001808900074
:101d700000804500100c98008b0556002b0c980035
:101d8000d80890000100e00003003c00881090009b
:101d90000138a30006003200e8009000e2c2b30060
:101da00082707800380890000000e800300c98003d
:101db00058089000400c98007600370000804000e2
:101dc0000c0178008a007800aa000700180890002b
:101dd00000004600100c98008c855500d808900033
:101de0000100e00003003c00881090000138a300cf
:101df00005003200e8009000e2c2b3008270780073
:101e00000000e800100c980058089000808f5500e2
:101e10000100340080057800e80090001808900068
:101e2000008040008c0045000b0178009100070005
:101e3000180890000b004000100c98005808900003
:101e40008b0550002b0c98005200370018089000aa
:101e5000e80090009a7078000000e800100c9800ec
:101e6000d80890000100e00003003c0088109000ba
:101e70000138a30005003200e8009000e2c2b30080
:101e8000827078000000e800100c9800580890005c
:101e90000000e000100034008b05e900808f550041
:101ea0000100340080057800e800900018089000d8
:101eb000008040008a00e8000b0178006d000700f8
:101ec000180890000b004000100c98005808900073
:101ed0008b0550002b0c9800e8009000180890002b
:101ee00000804000095878000007e8000c00e0007e
:101ef00004003500b1c2b300014878008e047800b8
:101f000004003700d1c2b300014878008e04780085
:101f10000c06ea007d8557008006eb0009003700bb
:101f2000a20020008c00780072805700310007006a
:101f30007fb097008fb89700016d78000006780099
:101f40008d06e8000c00e000f5ff3c000d00e0000d
:101f500009003a008e04780000c3b300805c78006a
:101f6000050037008d06e900fc80570061c07e0047
:101f700002c3b300825c40000d00e000f9ff3c00aa
:101f8000e800900018089000008040008084540011
:101f9000390c98000810900074006000f00f500099
:101fa0000e003a00980890007800900000804000f1
:101fb000a808900001004000b8089000010040000f
:101fc000c808900001004000f8089000810f500000
:101fd00002003d0000805000000c98004f07780080
:101fe0004f06be004f05be004f04be000f01b100fa
:101ff000000006008002780001037800110009004b
:102000000203d80080017800830a78000299b900a1
:1020100002015300920298000500780000000600bb
:10202000881f78008a9fbe008c9fbe000004780045
:102030000205be000406be000401be000a00be0088
:10204000b7010700008cbe000c01be00de020700d5
:102050000005550081855d002a0498003b04980026
:10206000080078004f06be004f05be004f04780000
:10207000000006008001780002003700b1597800a6
:102080000201e9000200e000fcff3a000000060047
:10209000020037000304e00006003200000178006f
:1020a00002007800b041780081cf5100f9ff3a007a
:1020b000010037000001eb0002007800000006007c
:1020c000889fbe0000047800e68440001900d0001c
:1020d0004500de00f27f2000820f500010003a0021
:1020e000000ceb00990478006f8164002000200050
:1020f0001b003a00210190000200e00018003a00a5
:10210000110190000200e00015003a0010002000cc
:102110001100e00012003200200020001000370003
:102120000000e00004003a0001007800cc00070045
:102130000000e00008003c00f200280019016100e6
:1021400001fe2300810c710021c02f00010c400012
:102150000080eb0002003700000ceb000000eb00f9
:102160004f04be00000006000400fa00889fbe0075
:102170008a9fbe008c1f780000047800010678005a
:10218000f80d9000780090008085550008089000b8
:10219000808555001808900080855500280890001b
:1021a00080855500380890008085550048089000cb
:1021b000808555000002220090bf9f00000323008d
:1021c000a0bf9f00081090000028a30015003a004f
:1021d0000b00e000130034000b0578008a0478003f
:1021e000e20f55000100360029002000c8019000d0
:1021f00009017800ee8057005800900003000100ac
:10220000500498000000e0008c0032006808900044
:1022100009004000600c9800090555004240a900e3
:10222000eeff3c00780190000200e0000c0034005a
:10223000c80190008c007800580090000300010055
:10224000500498008080eb000000e0007c00320029
:10225000e80890007800900000804000600c980032
:10226000880c90000900e000110034000905780096
:10227000e28f5400010036002a002000c8019000bf
:102280000a017800ec80570058009000030001001c
:10229000500498000000e0006800320068089000d8
:1022a0000a004000600c98008a845400edff37005b
:1022b000180990000200e0000c003400c8019000f2
:1022c000e8009000580090000300010050049800be
:1022d0008080eb000000e00059003200e808900028
:1022e0001808900000804000600c9800a80c900036
:1022f0000900e0001100340009057800e28f540065
:10230000010036002a002000c80190000a01780070
:10231000ec80570058009000030001005004980022
:102320000000e00045003200680890000a0040000c
:10233000600c98008a845400edff37003809900043
:102340000200e0000e003400e80090001808900041
:1023500080804000c80190005800900003000100f8
:10236000500498008080eb000000e0003400320050
:10237000e80890003808900000804000600c980049
:10238000c80c90000900e000110034000905780035
:10239000e28f5400010036002a002000c80190009e
:1023a0000a017800ec8057005800900003000100fb
:1023b000500498000000e0002000320068089000ff
:1023c0000a004000600c98008a845400edff37003a
:1023d000081090008000eb000028a30018003200d5
:1023e0000b00e000160034008b047800090578002b
:1023f000e28f5400010036002a002000c80190003e
:102400000a017800ee805700580090000300010098
:10241000500498000000e0000800320068089000b6
:102420000a004000600c98008a8454004240a900d1
:10243000eeff3c008000eb00010037008080eb00e5
:10244000010078004f0678004f05be004f04be0023
:102450000080fa0000000600010878000000060075
:10246000e6004000110178000500280085026100a7
:102470006f01610082087800020032001200200023
:1024800011003700a0019000120020000300e000be
:102490000d003a00900190000300e0000a003a00ad
:1024a0001000e00008003a003600370064034000e6
:1024b0009608780080017800530b78009009780026
:1024c0000408780070015100110278000400e00057
:1024d000f6ff320013003700640240001403780056
:1024e0004f33de0083814100830873008001780050
:1024f000d3037800cf3bde001403780006034300cb
:10250000068a730013027800040242001003780068
:102510004f33de0086097200900178000388410085
:102520000201e90091017800ef8f5100eaff3600c7
:102530001000370080017800530378004f33dd002e
:102540001002d10004087300640240009403780074
:10255000cf3bdd001303d10086897300110378009f
:102560004f33dd009401d100030a73009108d100bc
:102570000201e80091017800ff8f5100edff3e005d
:10258000ef88610091887200020078000000060068
:102590008f1fd100100207008f87e9000000e000c4
:1025a00000000600809feb000b0207008f87e90008
:1025b0000000e000000006002800fa00889fbe002e
:1025c0008a9fbe008c9fbe0003866b008f000700b1
:1025d0006400e100440032006408e1004a00320077
:1025e0006100e100460032006108e100490032006c
:1025f000ec0647006000b8003d02be003d03be008f
:10260000f48657006011b8003d04be003d05be00d1
:102610007d0320000b0037000000a0008d06e900bc
:10262000130032000402420085824a0006034b0078
:1026300087834b0000004000818048000201490070
:10264000838149000802520089825a000a035b0014
:102650008b835b00f0ff3b000802420089824a0046
:102660000a034b008b834b008d06e900edff3a0017
:102670008482720086827200f707b200878272003d
:1026800001003200150020001e0490003e0b900057
:1026900006035400e63fb0000368a30007003200c1
:1026a0000000a7000500a0008301d1000281d30033
:1026b0008180d3000080d3000603e8008301d100ad
:1026c0000281d3008180d3000080d3000002eb00a0
:1026d0000482d2002100070003f0a1000cf0a70043
:1026e00003f0a0005d003700640247006408e100c9
:1026f000570032003400be003401be00f6ff370040
:102700006108e100520032006011b8006000b800ba
:10271000f1ff370003ff270002002000fbff370016
:10272000839f68000100e00002003d00600010008f
:10273000e08018000300e00002003d00600111008d
:10274000e0811900100107004f00e00002003b008b
:1027500060001000e0801800000006001800200053
:1027600057002000080453000d003d000600200023
:1027700097fc2f000740e1001e00340084827200a5
:10278000610260008301d1000281d3008180d30007
:102790000080d3000804e800f8ff3a00470020005a
:1027a0006104600005047400040464000d0032003c
:1027b00061004000e080480060014900e08149007c
:1027c00003b8a500070032000603e8006538e10001
:1027d00004003a008301d1000281d3008180d3003c
:1027e0000080d300f87f20000830e10003003500ae
:1027f000080378006000b8006011b8004433dd00c1
:10280000f300b20083017300000006006804470073
:102810000294be000094be00fc0447008694be00f3
:102820008494be0009007800b40107000800780015
:10283000b201070099007800814f70000b003b0047
:102840000800be008d0107004f00b10003003700f3
:10285000f3ff2700f2ff2f006110b9004f06be0002
:102860004f05be004f04be000080fa0000000600c5
:1028700081037800e8f907000001be006000b8009d
:102880000478a30013003a006220e10015003e0026
:102890000d0039008301d1000281d3008180d30073
:1028a0008301d1000281d3008180d3008301d10054
:1028b0000281d3008180d3000538b000c42add0036
:1028c000f300b2008381720007f0a70003f0a000bc
:1028d00000000600f3ff2700f2ff2f006110b9008f
:1028e000fbff370003ff2700f7ff37001400fa0053
:1028f000889fbe008a9fbe008c9fbe000004be0061
:102900000205be00680047000a90be000890be00a5
:102910007a0107000070a7000bf0a10030432000ef
:102920009e02900080825200b0fe2f000028e1003d
:1029300011003d00b0fc2f000028e100150034001c
:102940001e0990008e0890007e0090000501b000e6
:102950000201d1008180d3000080d3008502e8000d
:10296000fbff3a000b00e000bcff3b0060001000e2
:10297000e0801800b9ff3700f0ff2f00f1ff2700bb
:102980000b00e000b5ff3b00010028000000200024
:10299000b2ff37006000b800b0ff37004f89de009b
:1029a000820178007c0137002800fa00889fbe0071
:1029b0008a9fbe008c9fbe0003866b0093ff0700ba
:1029c0000028a30064003a000128a30067003a0031
:1029d0000008a30062003a000108a30065003a0065
:1029e0001e009000be08900081064000ed3fb1003f
:1029f000f4805700ee019000111ab8008e09900083
:102a0000311bb8009e099000311cb800511db80060
:102a1000f485570046000700fe0190003a000700c9
:102a20008b85e8003e0007008e09900040000700fb
:102a3000ee019000340007008b85e80038000700a5
:102a40008e099000400007009e0990001b18b800f6
:102a5000890440000a854800fe0190003400070008
:102a60008b85e80038000700ee0190003000070079
:102a70008e0990001b18b800890440000a854800a0
:102a80000a98a30008003a000402420085824a0026
:102a900006034b0087834b0008044c0089844c00dc
:102aa0000a054d008d06e9008482720085027300dc
:102ab0004c3add0085027200010032001500200052
:102ac000443ade001400b2004538de00cb45dd009c
:102ad0000b007000c540de00cb4ddd008b80700028
:102ae0004549de00cb55dd000b017100c551de000c
:102af0000d03780019ff070003f0a1000cf0a700f8
:102b000003f0a00055ff37001b18b80085024000f5
:102b100006834800e0834b0060044c000700370048
:102b20001b18b8000603400087834800faff3700ef
:102b30001b18b8008703400008844800e0844c005c
:102b400060054d00000006001b18b8000804400096
:102b500089844800faff37000108a3003cff3a00cf
:102b60005800be005801be00e3ff37000008a30074
:102b700037ff3a0009047800f9ff37000000000031
:102b800007f0a200160037006022b80006022000fd
:102b90000000d0008180d2000482d2008582d20061
:102ba0000000a0000202520083825a00030031009c
:102bb0000202420083824a000000a1000603e900ed
:102bc000f3ff3a0000000600020ab900001bb9003a
:102bd0000200b800810042008100430000000600ae
:102be0002800fa00889fbe008a9fbe008c9fbe000e
:102bf00007067800878669000c003b000304780014
:102c00008704780008f0a10009f0a100840f5000ab
:102c1000858f5800860f5900890f5c000300330030
:102c20000cf0a20001003a000cf0a100f7fe070032
:102c30006400e1005f003200780147006408e100b1
:102c4000610032006c014700748557003200be00fd
:102c50001201be003a04be001a05be001e03900019
:102c6000be0a90008503530006003d000004fd00ed
:102c70008104fd000205fd008305fd008703ea00d5
:102c8000050378000df8a30004003200600414006e
:102c9000e0841c0060051d00e0851d006022b80076
:102ca0007d0320000d38e1008006eb000b003900a9
:102cb0004433dd00f300b2008301730039003700b4
:102cc000848272000d027800e10664008b85d100d9
:102cd0000a85d3008984d3000884d3008703e900e0
:102ce000f7ff3b0008004000898048000a014900c6
:102cf0008b81490004003b0060001000e080180058
:102d000060011900e08119000358a3000900320096
:102d10008d82720084827200610260008301d100a2
:102d20000281d3008180d3000080d3000603e80035
:102d30001b0037000348a30017003a000600e0001c
:102d4000170034000603e9000d00a300000048004e
:102d50008180480002014900838149000348a300a3
:102d60000f003a000600e000090034000603e90005
:102d70000000400081804800020149008381490031
:102d800001003a000003eb000348a300f5ff320006
:102d90006022b800020037008482720061826600ff
:102da0006efe070003f0a1000cf0a70003f0a000e6
:102db000aafe3700640147006408e10002003a00ff
:102dc0000df8a300a2fe3a003200be001201be00c0
:102dd000a2fe370000000000889fbe008a9fbe0050
:102de0008c9fbe000404be000605be00809fbe008e
:102df000829fbe002f000700040678000800be0076
:102e00000a01be002b000700840678004f03be00b5
:102e10004f02be008d4f76007fb097001300330045
:102e2000f0ff2f008b8f6b0006003b000d06660045
:102e30000c00a7000a00370007f0a60010002000d1
:102e40000a003700880f5200898f5a008a0f5b00f2
:102e50008b8f5b00030039001000200001003e0052
:102e60000000200007f0a7000000ea004f06be00a7
:102e70004f05be004f04be0000000600e482400083
:102e80001078a30007003200640240001178a3000c
:102e90003400be001401be00040032000330a7005d
:102ea000000006003500be001501be000330a00082
:102eb0000000060005ff27000582610007003200c0
:102ec0000428e1000100320024000500060007008c
:102ed00001003a0044000500040805000200070054
:102ee000f9ff3a00140005006f8261008102700052
:102ef00085027100850272000000060080007800e3
:102f00005002be005003be004439de00f700b2009c
:102f1000f37f200003016100090032000218e10084
:102f200016003a00850172008301730083817300eb
:102f30000008200015003a00400020001300370070
:102f400085017200830173008381730005003a00dc
:102f500004a8be0006a8be00100020000b00370029
:102f60000201e9000402420085824a0006034b0088
:102f700087834b000748a300f9ff32000740a000f9
:102f800004a8be0006a8be00200020008000980013
:102f90009200980000000600881f78000304780063
:102fa0000300e00007003d0060001000e080180012
:102fb00060011900e081190002003b0001f02d00c2
:102fc000030037000400070008f0a70003f0a0008a
:102fd0004f04780000000600889fbe000082700049
:102fe0000402710004827100240032003643200084
:102ff000c50020008383cf000a0039000541b100dd
:103000008283cf00070039000541b1008183cf00e2
:10301000040039000541b1008083cf000100390070
:103020000541b10085c353006022b8001200320090
:103030000a003b0084827200610260008301d100bb
:103040000281d3008180d3000080d3000603e80012
:103050008743e800f7ff3a00070037000000400010
:103060008180480002014900838149000603e9008c
:103070008743e900f9ff3a00b8fd07004f04be009e
:043080000000060046
:020000040000fa
:10308400253200002e31000066200000205300008d
:1030940041000000253200002e31000066200000af
:1030a4002052000041000000253200002e310000b3
:1030b400662000002053000042000000253200007a
:1030c4002e31000066200000205200004200000063
:1030d400253200002e31000066200000205300003d
:1030e40043000000253200002e310000662000005d
:1030f4002052000043000000253200002e31000061
:103104006620000020530000440000002532000027
:103114002e31000066200000205200004400000010
:10312400253200002e3100006620000020530000ec
:1031340045000000253200002e310000662000000a
:1031440020520000450000004f46000046000000e9
:020000040000fa
:103154000000fa00213a8000f08f2f000080600008
:10316400203a8800e0ff290060198800c9e2a9001c
:10317400c9c2a900c9a2a900c982a900c962a9003b
:103184001021ef0040462000600888000621ef006f
:1031940084e0a9008421ef00803e2000100c880008
:1031a400803e2000000c8800210c800080ff2f004e
:1031b400008060006000b300200c88008461a900d6
:1031c4008a21ef0040062000400c8800007d20008a
:1031d400300c8800510c800080ff2f0000806000bc
:1031e4006000b300500c88008a61a9009021ef00b0
:1031f40040062000700c880080bb2000600c880012
:10320400810c800080ff2f00008060006000b3000c
:10321400800c88009061a9009621ef00a000200096
:10322400a00c880000fa2000900c8800b10c8000eb
:1032340080ff2f00008060006000b300b00c8800a5
:103244009661a9009c21ef00a0002000d00c88000a
:1032540040192100c00c8800e10c800080ff2f0081
:10326400008060006000b300e00c88009c61a9004d
:10327400113a8000f00b20000081600060042000ff
:10328400710520002374200080497800814978006a
:103294008249780071368000f00f2e008080600033
:1032a4000020210001007000703688007136800013
:1032b40000fe2f00008060003001b30070368800eb
:1032c40061368000f00f2e008080600000402100f5
:1032d40001007000603688006136800000fe2f0017
:1032e400008060005001b3006036880051368000d1
:1032f400f00f2e008080600000602100010070004b
:1033040050368800103a8000000178000260a00066
:103314006004200071052000237420008049780097
:10332400814978008249780094e0a80011e1a8005e
:103334000080fa00000006000000fa002023ef00dd
:1033440001198000f0f12f00008060000060a000ef
:10335400001988002043a8002223ef002343a8007b
:103364001119800030fc2f00008060000040a00094
:10337400101988002223a80010c0b30024e3b7006a
:1033840025e3a90021198000f00f2e0000806000c1
:103394000080a000201988002823ef004119800034
:1033a40000ff2f0000806000401988002c03a90052
:1033b4002c23a9002c43a9002c63a9002c83a90069
:1033c4003003a8003023a8003043a8003063a800cd
:1033d4003083a80021e3a8001221ef000a21ef00a6
:1033e400200220007008880013e1a80095a0a8001e
:1033f40085a0a9000080fa00000006000000fa0081
:10340400c042a800c062a800c082a800c882a80068
:103414006bc0a8006ba0a8006820a8006800a800e2
:10342400000320002008880080b5210010088800cf
:103434000021ef008460a9009460a80005e1a800c1
:103444000080fa00000006000200fa00881f7800dd
:103454000000eb00000f7800501680007000600040
:103464000000e00003003a0000c8bf000004a2000e
:1034740000e8b70000c8bf00e14f50007f013a00e8
:1034840010168000700060000000e00008003a00a0
:1034940001c8bf00e34f500004003e0001c8bf0054
:1034a4000040e80001e8b700010037000168ef00c0
:1034b40010168000640060000000e000b8003a00cc
:1034c40001c8bf000080fb00e20f5000460032003c
:1034d400e20f500005003c000000e000080032004c
:1034e400e10f50002300320096003700e30f500034
:1034f4005a003200e40f500075003200910037008a
:10350400304080004140800018c0b3000200200019
:103514000312240078f607000000e00001003500e3
:103524000044eb000804e0009400320030408000c6
:1035340041408000d2cc2c00c3dc2300cff507002f
:103544003040880041408800304080004140800085
:10355400f25128007318240025f6070082eb21009d
:1035640053052400d8f60700704188008141880083
:103574008b003700504080006140800018c0b300c9
:1035840002002000031224005bf607000000e000a4
:10359400010035000044eb000804e000790032002b
:1035a4005040800061408000d2cc2c00c3dc23005a
:1035b400b2f5070050408800614088005040800008
:1035c40061408000f25128007318240008f60700b7
:1035d40082eb210053052400bbf6070090418800cc
:1035e400a14188006e003700704080008140800057
:1035f40018c0b30002002000031224003ef60700a6
:103604000000e000010035000044eb000804e00085
:103614005e0032007040800081408000d2cc2c00db
:10362400c3dc230095f507007040880081408800c2
:103634007040800081408000f251280073182400fb
:10364400ebf5070082eb2100530524009ef60700ea
:10365400b0418800c141880051003700904080008b
:10366400a140800018c0b30002002000031224000f
:1036740021f607000000e000010035000044eb00e3
:103684000804e0004300320090408000a140800024
:10369400d2cc2c00c3dc230078f5070090408800ce
:1036a400a140880090408000a1408000f251280091
:1036b40073182400cef5070082eb21005305240083
:1036c40081f60700d0418800e141880034003700ca
:1036d400b0408000c140800018c0b3000200200048
:1036e4000312240004f607000000e0000100350086
:1036f4000044eb000804e00028003200b0408000e1
:10370400c1408000d2cc2c00c3dc23005bf5070051
:10371400b0408800c1408800b0408000c1408000b3
:10372400f251280073182400b1f5070082eb210040
:103734005305240064f60700f04188000142880024
:10374400170037000000eb00000f78000700370077
:103754001e007800c200dd00e082200000814000ed
:103764006000b8000089be001e0fe8001e0078004b
:10377400e40f5000f6ff3400090037000000000099
:1037840007003700000000000500370000000000bb
:1037940003003700000000000100370000000000b3
:1037a40010168000680060000000e000b3003a00da
:1037b40001c8bf000080fb00e20f5000440032004b
:1037c400e20f500005003c000000e0000800320059
:1037d400e10f50002200320091003700e30f500047
:1037e40057003200e40f5000710032008c003700a3
:1037f400304080004140800018c0b3006011b80020
:10380400bff507000000e00001003c000044eb00ad
:103814000804e00090003200304080004140800005
:10382400d2cc2c00c3dc230013f507003040880001
:10383400414088003040800041408000f25128001f
:10384400731824006af5070082eb21005305240055
:103854001df6070070418800814188008700370009
:10386400504080006140800018c0b3006011b8006f
:10387400a3f507000000e00001003c000044eb0059
:103884000804e0007600320050408000614080006f
:10389400d2cc2c00c3dc2300f7f40700504088008e
:1038a400614088005040800061408000f25128004f
:1038b400731824004ef5070082eb21005305240001
:1038c40001f6070090418800a14188006b00370091
:1038d400704080008140800018c0b3006011b800bf
:1038e40087f507000000e00001003c000044eb0005
:1038f4000804e0005c0032007040800081408000d9
:10390400d2cc2c00c3dc2300dbf407007040880019
:10391400814088007040800081408000f25128007e
:103924007318240032f5070082eb210053052400ac
:10393400e5f50700b0418800c14188004f00370019
:1039440090408000a140800018c0b3006011b8000e
:103954006bf507000000e00001003c000044eb00b0
:103964000804e0004200320090408000a140800042
:10397400d2cc2c00c3dc2300bff4070090408800a5
:10398400a140880090408000a1408000f2512800ae
:103994007318240016f5070082eb21005305240058
:1039a400c9f50700d0418800e141880033003700a1
:1039b400b0408000c140800018c0b3006011b8005e
:1039c4004ff507000000e00001003c000044eb005c
:1039d4000804e00028003200b0408000c1408000ac
:1039e400d2cc2c00c3dc2300a3f40700b040880031
:1039f400c1408800b0408000c1408000f2512800de
:103a040073182400faf4070082eb21005305240004
:103a1400adf50700f0418800014288001700370027
:103a24000000eb00000f7800070037001e0078004c
:103a3400c200dd00e0822000008140006000b80088
:103a44000089be001e0fe8001e007800e40f50003d
:103a5400f6ff3400090037000000000007003700bb
:103a640000000000050037000000000003003700dc
:103a74000000000001003700000000004f0478003f
:103a84000080fa00000006000000fa0000c8bf0031
:103a9400e14f5000d4003a0001c8bf000080fb0091
:103aa400e20f500056003200e20f500005003c00c7
:103ab4000000e00008003200e10f50002b0032004b
:103ac400bf003700e30f500072003200e40f5000d3
:103ad40095003200ba00370010c0b300fb000700a5
:103ae40020002000ec0007003040800041408000ae
:103af400809fbe0020842900801f7800e08720007a
:103b0400fcf50700e68757008040eb000040eb001f
:103b140033010700e08720008a010700d0408000bd
:103b2400e1408000b2962c00230a240066f50700c9
:103b340082eb210053b5230063f50700809fbe008c
:103b4400c0842900801f7800e0872000e9f5070081
:103b5400e68757008040eb0010c0b3002001070047
:103b6400e087200077010700a800370010c0b300e9
:103b7400d600070020002000c70007005040800046
:103b840061408000809fbe0060852900801f78000e
:103b9400e0872000d7f50700e68757008040eb0058
:103ba4000040eb000e010700e087200065010700dc
:103bb400f040800001418000b2962c00230a2400ca
:103bc40041f5070082eb210053b523003ef50700c1
:103bd400809fbe0000862900801f7800e0872000b7
:103be400c4f50700e68757008040eb0010c0b3001f
:103bf400fb000700e0872000520107008300370024
:103c040010c0b300b100070020002000a20007008c
:103c14007040800081408000809fbe00a086290003
:103c2400801f7800e0872000b2f50700e687570080
:103c34008040eb000040eb00e9000700e087200033
:103c4400400107001041800021418000b2962c0001
:103c5400230a24001cf5070082eb210053b523003e
:103c640019f50700809fbe0040872900801f780057
:103c7400e08720009ff50700e68757008040eb00af
:103c840010c0b300d6000700e08720002d01070014
:103c94005e00370010c0b3008c0007002000200035
:103ca4007d00070090408000a1408000809fbe00fe
:103cb400e0872900801f7800e08720008df5070049
:103cc400e68757008040eb000040eb00c40007008b
:103cd400e08720001b010700304180004141800043
:103ce400b2962c00230a2400f7f4070082eb21008b
:103cf40053b52300f4f40700809fbe008088290098
:103d0400801f7800e08720007af50700e6875700d7
:103d14008040eb0010c0b300b1000700e087200032
:103d2400080107003900370010c0b300670007001e
:103d34002000200058000700b0408000c1408000ef
:103d4400809fbe0020892900801f7800e087200022
:103d540068f50700e68757008040eb000040eb0061
:103d64009f000700e0872000f60007005041800014
:103d740061418000b2962c00230a2400d2f407008b
:103d840082eb210053b52300cff40700809fbe00cf
:103d9400c0892900801f7800e087200055f50700be
:103da400e68757008040eb0010c0b3008c0007008a
:103db400e0872000e3000700000000001300370044
:103dc40010c0b300410007002000200032000700ab
:103dd4008040eb000040eb0081000700608a29006e
:103de400d80007000900370010c0b30037000700ef
:103df40020002000280007008040eb000040eb007a
:103e040077000700608a2900ce0007000080fa00ce
:103e1400000006000000fa008000070055000700bb
:103e2400cbfc070044fd070074fd070010c0b3007d
:103e340000e8b70000000000feff37000200fa00af
:103e44000000eb00000f78000200370000000000c3
:103e54001e0fe800b00820009e007800808f5000fc
:103e6400faff34000080fa00000006000200fa00a5
:103e74000000eb00000f7800020037000000000093
:103e84001e0fe8001e0078000000e000fbff340075
:103e94000080fa00000006000400fa0010079800f1
:103ea4000000eb00000f780002003700e3ff07007a
:103eb4001e0fe8001e0090009e007800808f5000c6
:103ec400faff39000080fa00000006000200fa0040
:103ed400004f78001602a80000000000b010800017
:103ee400610060000000e000fcff3a008a40a90085
:103ef400c0072000901088000000000050048000db
:103f0400640060000000e000fcff32008a40a90069
:103f14001222ef00000000005004800064006000e2
:103f24000000e000fcff32008a40a9001e00fb00f4
:103f340090108800000000005004800064006000bd
:103f44000000e000fcff32008a40a9001642a800ed
:103f540000000000b0108000640060000000e00079
:103f6400fcff3a008a40a900c0ff07000080fa0065
:103f7400000006000000fa0020032000c6ff07002e
:103f840080c3b300d1ff070090c3b300cfff070085
:103f940040c1b300cdff070070c7b300cbff0700db
:103fa400d0c5b300c9ff0700c0c6b300c7ff0700f0
:103fb400800c2000b8ff070080c3b300c3ff0700d4
:103fc400c0c0b300c1ff070010c0b300bfff0700ab
:103fd40020002000b0ff07000080fa000000060067
:103fe4000400fa0020479800314798000040eb0095
:103ff400004f7800ae409000600020008008dd0093
:104004003e40900000cf40001e74a0001e40780087
:10401400aeff07000080fa00000006000000fa006e
:10402400213a8000f08f2f0000806000203a880041
:10403400f0ff290060198800c8a2a9001622ef0029
:10404400d0092000a01088001782a80017e2a80059
:104054001662a8008a40a9000021ef00400d230049
:104064001008880000022800200888008460a90045
:104074000621ef00f00920006008880000002800f5
:104084008008880084e0a9000080fa00000006008f
:104094000200fa00004f78008a40a9001602a80026
:1040a40000000000b0108000610060000000e0002b
:1040b400fcff3a008a40a900c00720009010880045
:1040c4000000000050048000640060000000e00074
:1040d400fcff32008a40a9000004200090108800f0
:1040e4000000000050048000640060000000e00054
:1040f400fcff32008a40a9001e00fb0090108800db
:104104000000000050048000640060000000e00033
:10411400fcff32008a40a9001642a80000000000fb
:10412400b0108000640060000000e000fcff3a0072
:104134008a40a9004dff0700000000000080fa003b
:10414400000006000400fa00881f78001007980099
:104154000040eb00004f78008a40a9001602a80036
:1041640000000000b0108000610060000000e0006a
:10417400fcff3a008a40a900c00720009010880084
:104184000000000050048000640060000000e000b3
:10419400fcff32008a40a9000040eb00004f780089
:1041a40015003700000c200090108800000000006b
:1041b40050048000640060000000e000fcff320056
:1041c4008a40a9001e00fb009e0090000080400071
:1041d400104078000000fb009010880000000000f0
:1041e40050048000640060000000e000fcff320026
:1041f4008a40a9001e4fe8001e04fb001e00900028
:104204002ff40700800f5400e6ff39001642a8007f
:1042140000000000b0108000640060000000e000b6
:10422400fcff3a008a40a90010ff070000000000cc
:104234004f0478000080fa00000006000600fa002f
:10424400881f7800200798008040eb000040eb00b6
:1042540063ff07000000eb00000f78004800370000
:104264000040eb00204798008a40a9001602a800ed
:1042740000000000b0108000610060000000e00059
:10428400fcff3a008a40a900c00720009010880073
:104294000000000050048000640060000000e000a2
:1042a400fcff32008a40a9000040eb002047980040
:1042b40021003700000c200090108800000000004e
:1042c40050048000640060000000e000fcff320045
:1042d4008a40a9002e4090000000fb001e00400010
:1042e400000478002e009000f5f307000000e800b9
:1042f40000017800110009000284d8008000fd004c
:10430400ae00900000804000104078000000fb00e8
:1043140090108800000000005004800064006000d9
:104324000000e000fcff32008a40a9002e4090000b
:104334000040e800204798002e409000e74f5000ce
:10434400dcff34001642a80000000000b01080001a
:10435400640060000000e000fcff3a008a40a9000d
:10436400c2fe07000000000080b52100cafe07005d
:104374008040eb000040eb0019ff07001e0fe8002f
:104384001e0478002e009000cdf30700800f540027
:10439400b3ff39004f0478000080fa0000000600e3
:020000040000fa
:1043a400060800008c000000000000000008000067
:1043b4000600000000000000ea0800001a000000e7
:1043c40002000000686a6c00747a4c00000001006e
:1043d400000200000400080000100000000020009b
:1043e4002b2d23003000000092080000580000002c
:1043f400020000006e616e00004e41004e00690034
:104404006e660000494e46000000000000000000f7
:10441400002440000000000000000000594000009b
:10442400000000000088c300400000000000840079
:10443400d79741000080e0003779c300414317005b
:104444006e05b500b5b8930046f5f9003fe90300e1
:104454004f384d00321d3000f9487700825a3c0035
:10446400bf737f00dd4f15007500000004090000d4
:104474000200000002000000300000000000000004
:020000040000fa
:020000040001f9
:0457f8000ff90000a5
:020000040000fa
:020000040001f9
:0457fc007f3f0000eb
:00000001FF
